:020000040800F2
:10000000005000200DD0000849CF00084FCF000855
:1000100055CF00085BCF000861CF0008000000004A
:1000200000000000000000000000000067CF000892
:1000300073CF0008000000007FCF00088BCF0008BE
:1000400055D0000855D0000855D0000855D00008FC
:1000500055D0000855D0000855D0000855D00008EC
:1000600055D0000855D0000855D0000855D00008DC
:1000700055D0000855D0000855D0000855D00008CC
:1000800055D0000855D0000855D0000855D00008BC
:1000900055D0000855D0000855D0000855D00008AC
:1000A00055D0000855D0000855D0000855D000089C
:1000B00055D0000855D0000855D0000855D000088C
:1000C00055D0000855D0000855D0000855D000087C
:1000D00055D0000897CF000855D0000855D000082B
:1000E00055D0000855D0000855D000080000000089
:1000F0000000000000000000000000000000000000
:0C01000000000000000000005FF808F1A3
:10010C0010B5054C237833B9044B13B10448AFF345
:10011C0000800123237010BD10000020000000009F
:10012C007CD1000808B5034B1BB103490348AFF35E
:10013C00008008BD00000000140000207CD10008E5
:10014C0080B400AF00BFBD4680BC704780B485B0A2
:10015C0000AF0023FB600023BB6000237B602F4BB0
:10016C005B6803F00C03FB60FB68082B11D0FB6889
:10017C00082B3AD8FB68002B03D0FB68042B04D067
:10018C0033E0274B274A1A6033E0254B254A1A6087
:10019C002FE0224B5B6803F47013BB601F4B5B6852
:1001AC0003F480337B60BB689B0C0233BB607B68C1
:1001BC00002B06D1BB681C4A02FB03F3184A1360E0
:1001CC0017E0164B5B6803F40033002B06D0BB68BA
:1001DC00154A02FB03F3124A13600AE0BB68114A8A
:1001EC0002FB03F30E4A136003E00D4B0D4A1A6039
:1001FC0000BF0A4B5B681B0903F00F030B4AD35C6F
:10020C00FB60074B1A68FB6822FA03F3044A13607D
:10021C0000BF1437BD4680BC704700BF00100240C1
:10022C000000002000127A0000093D0094D1000863
:10023C0080B582B000AF78607B68002B01D10123C0
:10024C0041E07B6893F83D30DBB2002B06D17B6834
:10025C00002283F83C2078680CF06EFD7B6802224B
:10026C0083F83D207B681A687B6804331946104676
:10027C0005F00CF87B68012283F846207B6801228C
:10028C0083F83E207B68012283F83F207B680122A3
:10029C0083F840207B68012283F841207B6801228F
:1002AC0083F842207B68012283F843207B6801227B
:1002BC0083F844207B68012283F845207B68012267
:1002CC0083F83D20002318460837BD4680BD80B515
:1002DC0082B000AF78607B68022283F83D207B6897
:1002EC001B681A6A41F211131340002B0FD17B6863
:1002FC001B681A6A40F244431340002B07D17B68F9
:10030C001B681A687B681B6822F001021A60786807
:10031C000CF05EFD7B68002283F846207B6800228F
:10032C0083F83E207B68002283F83F207B68002204
:10033C0083F840207B68002283F841207B680022F0
:10034C0083F842207B68002283F843207B680022DC
:10035C0083F844207B68002283F845207B680022C8
:10036C0083F83D207B68002283F83C20002318464C
:10037C000837BD4680BD80B483B000AF786000BF45
:10038C000C37BD4680BC704780B483B000AF78603A
:10039C0000BF0C37BD4680BC704780B485B000AF41
:1003AC0078607B6893F83D30DBB2012B01D00123E0
:1003BC0032E07B68022283F83D207B681B68194A77
:1003CC0093420ED07B681B68B3F1804F09D07B68D9
:1003DC001B68154A934204D07B681B68134A9342EE
:1003EC0011D17B681B689B6803F00703FB60FB68FB
:1003FC00062B10D07B681B681A687B681B6842F060
:10040C0001021A6007E07B681B681A687B681B682E
:10041C0042F001021A60002318461437BD4680BC16
:10042C00704700BF002C0140000400400008004051
:10043C0080B483B000AF78607B681B681A6A41F2A5
:10044C0011131340002B0FD17B681B681A6A40F202
:10045C0044431340002B07D17B681B681A687B68E8
:10046C001B6822F001021A607B68012283F83D2090
:10047C00002318460C37BD4680BC704780B485B04D
:10048C0000AF78607B6893F83D30DBB2012B01D074
:10049C0001233AE07B68022283F83D207B681B68CD
:1004AC00DA687B681B6842F00102DA607B681B68C3
:1004BC00184A93420ED07B681B68B3F1804F09D069
:1004CC007B681B68144A934204D07B681B68134AF0
:1004DC00934211D17B681B689B6803F00703FB6098
:1004EC00FB68062B10D07B681B681A687B681B683E
:1004FC0042F001021A6007E07B681B681A687B688F
:10050C001B6842F001021A60002318461437BD46DE
:10051C0080BC7047002C01400004004000080040E3
:10052C0080B483B000AF78607B681B68DA687B6846
:10053C001B6822F00102DA607B681B681A6A41F2C0
:10054C0011131340002B0FD17B681B681A6A40F201
:10055C0044431340002B07D17B681B681A687B68E7
:10056C001B6822F001021A607B68012283F83D208F
:10057C00002318460C37BD4680BC704780B586B04A
:10058C0000AFF860B9601346FB80FB6893F83D3010
:10059C00DBB2022B01D1022366E0FB6893F83D30FD
:1005AC00DBB2012B25D1BB68002B02D0FB88002BC2
:1005BC0001D1012358E0FB68022283F83D20FB683F
:1005CC001B6A2B4A9A62FB681B6A2A4ADA62FB682E
:1005DC001B6A294A1A63FB68186AB968FB681B68AE
:1005EC002C331A46FB8808F062FE0346002B04D01D
:1005FC0001E0012338E0012336E0FB681B68DA6870
:10060C00FB681B6842F48072DA60FB681B681B4A4B
:10061C0093420ED0FB681B68B3F1804F09D0FB6886
:10062C001B68174A934204D0FB681B68154A934217
:10063C0011D1FB681B689B6803F007037B617B6926
:10064C00062B10D0FB681B681A68FB681B6842F00D
:10065C0001021A6007E0FB681B681A68FB681B68DC
:10066C0042F001021A60002318461837BD4680BDBF
:10067C000552000833520008334F0008002C01408B
:10068C00000400400008004080B582B000AF7860E4
:10069C007B681B68DA687B681B6822F48072DA60FE
:1006AC007B681B6A184608F09DFE7B681B681A6AFB
:1006BC0041F211131340002B0FD17B681B681A6A8F
:1006CC0040F244431340002B07D17B681B681A6827
:1006DC007B681B6822F001021A607B68012283F898
:1006EC003D20002318460837BD4680BD80B582B03A
:1006FC0000AF78607B68002B01D1012341E07B685F
:10070C0093F83D30DBB2002B06D17B68002283F8D6
:10071C003C20786800F08DF87B68022283F83D203D
:10072C007B681A687B6804331946104604F0AEFDEA
:10073C007B68012283F846207B68012283F83E20E7
:10074C007B68012283F83F207B68012283F84020DC
:10075C007B68012283F841207B68012283F84220C8
:10076C007B68012283F843207B68012283F84420B4
:10077C007B68012283F845207B68012283F83D20A9
:10078C00002318460837BD4680BD80B582B000AF47
:10079C0078607B68022283F83D207B681B681A6AAC
:1007AC0041F211131340002B0FD17B681B681A6A9E
:1007BC0040F244431340002B07D17B681B681A6836
:1007CC007B681B6822F001021A60786800F03AF826
:1007DC007B68002283F846207B68002283F83E2049
:1007EC007B68002283F83F207B68002283F840203E
:1007FC007B68002283F841207B68002283F842202A
:10080C007B68002283F843207B68002283F8442015
:10081C007B68002283F845207B68002283F83D200A
:10082C007B68002283F83C20002318460837BD461D
:10083C0080BD80B483B000AF786000BF0C37BD467C
:10084C0080BC704780B483B000AF786000BF0C37B9
:10085C00BD4680BC704780B584B000AF786039600D
:10086C003B68002B09D17B6893F83E30DBB2012B3F
:10087C0014BF01230023DBB222E03B68042B09D117
:10088C007B6893F83F30DBB2012B14BF01230023AC
:10089C00DBB215E03B68082B09D17B6893F840303C
:1008AC00DBB2012B14BF01230023DBB208E07B6811
:1008BC0093F84130DBB2012B14BF01230023DBB2D0
:1008CC00002B01D001235EE03B68002B04D17B6838
:1008DC00022283F83E2013E03B68042B04D17B6892
:1008EC00022283F83F200BE03B68082B04D17B6885
:1008FC00022283F8402003E07B68022283F8412027
:10090C007B681B6801223968184605F0EAF87B6899
:10091C001B681F4A934207D17B681B685A6C7B6823
:10092C001B6842F400425A647B681B68184A934265
:10093C000ED07B681B68B3F1804F09D07B681B68B5
:10094C00144A934204D07B681B68134A934211D11A
:10095C007B681B689B6803F00703FB60FB68062B36
:10096C0010D07B681B681A687B681B6842F0010218
:10097C001A6007E07B681B681A687B681B6842F08A
:10098C0001021A60002318461037BD4680BD00BF17
:10099C00002C0140000400400008004080B582B0EB
:1009AC0000AF786039607B681B6800223968184694
:1009BC0005F097F87B681B68294A934217D17B682E
:1009CC001B681A6A41F211131340002B0FD17B687C
:1009DC001B681A6A40F244431340002B07D17B6812
:1009EC001B685A6C7B681B6822F400425A647B6853
:1009FC001B681A6A41F211131340002B0FD17B684C
:100A0C001B681A6A40F244431340002B07D17B68E1
:100A1C001B681A687B681B6822F001021A603B682D
:100A2C00002B04D17B68012283F83E2013E03B6845
:100A3C00042B04D17B68012283F83F200BE03B6838
:100A4C00082B04D17B68012283F8402003E07B68EB
:100A5C00012283F84120002318460837BD4680BD8B
:100A6C00002C014080B584B000AF78603960002361
:100A7C00FB733B68002B09D17B6893F83E30DBB2EB
:100A8C00012B14BF01230023DBB222E03B68042BB3
:100A9C0009D17B6893F83F30DBB2012B14BF0123E3
:100AAC000023DBB215E03B68082B09D17B6893F877
:100ABC004030DBB2012B14BF01230023DBB208E072
:100ACC007B6893F84130DBB2012B14BF0123002368
:100ADC00DBB2002B01D00123A9E03B68002B04D131
:100AEC007B68022283F83E2013E03B68042B04D180
:100AFC007B68022283F83F200BE03B68082B04D173
:100B0C007B68022283F8402003E07B68022283F892
:100B1C0041203B680C2B41D801A252F823F000BFB6
:100B2C00610B0008A90B0008A90B0008A90B000811
:100B3C00730B0008A90B0008A90B0008A90B0008EF
:100B4C00850B0008A90B0008A90B0008A90B0008CD
:100B5C00970B00087B681B68DA687B681B6842F09F
:100B6C000202DA601DE07B681B68DA687B681B6830
:100B7C0042F00402DA6014E07B681B68DA687B6878
:100B8C001B6842F00802DA600BE07B681B68DA68CD
:100B9C007B681B6842F01002DA6002E00123FB73F1
:100BAC0000BFFB7B002B41D17B681B68012239689D
:100BBC00184604F096FF7B681B681F4A934207D1C6
:100BCC007B681B685A6C7B681B6842F400425A6451
:100BDC007B681B68184A93420ED07B681B68B3F184
:100BEC00804F09D07B681B68144A934204D07B6801
:100BFC001B68134A934211D17B681B689B6803F0F6
:100C0C000703BB60BB68062B10D07B681B681A6897
:100C1C007B681B6842F001021A6007E07B681B6866
:100C2C001A687B681B6842F001021A60FB7B18464D
:100C3C001037BD4680BD00BF002C014000040040B1
:100C4C000008004080B584B000AF786039600023A4
:100C5C00FB733B680C2B41D801A252F823F000BF68
:100C6C00A10C0008E90C0008E90C0008E90C0008CC
:100C7C00B30C0008E90C0008E90C0008E90C0008AA
:100C8C00C50C0008E90C0008E90C0008E90C000888
:100C9C00D70C00087B681B68DA687B681B6822F03D
:100CAC000202DA601DE07B681B68DA687B681B68EF
:100CBC0022F00402DA6014E07B681B68DA687B6857
:100CCC001B6822F00802DA600BE07B681B68DA68AC
:100CDC007B681B6822F01002DA6002E00123FB73D0
:100CEC0000BFFB7B002B57D17B681B680022396847
:100CFC00184604F0F6FE7B681B682A4A934217D10B
:100D0C007B681B681A6A41F211131340002B0FD138
:100D1C007B681B681A6A40F244431340002B07D1CE
:100D2C007B681B685A6C7B681B6822F400425A640F
:100D3C007B681B681A6A41F211131340002B0FD108
:100D4C007B681B681A6A40F244431340002B07D19E
:100D5C007B681B681A687B681B6822F001021A60AA
:100D6C003B68002B04D17B68012283F83E2013E002
:100D7C003B68042B04D17B68012283F83F200BE0F5
:100D8C003B68082B04D17B68012283F8402003E0E8
:100D9C007B68012283F84120FB7B18461037BD4647
:100DAC0080BD00BF002C014080B586B000AFF8605C
:100DBC00B9607A607B800023FB75BB68002B09D17E
:100DCC00FB6893F83E30DBB2022B0CBF01230023EF
:100DDC00DBB222E0BB68042B09D1FB6893F83F30EF
:100DEC00DBB2022B0CBF01230023DBB215E0BB6886
:100DFC00082B09D1FB6893F84030DBB2022B0CBFF7
:100E0C0001230023DBB208E0FB6893F84130DBB22E
:100E1C00022B0CBF01230023DBB2002B01D00223D9
:100E2C0053E1BB68002B09D1FB6893F83E30DBB271
:100E3C00012B0CBF01230023DBB222E0BB68042B87
:100E4C0009D1FB6893F83F30DBB2012B0CBF0123B7
:100E5C000023DBB215E0BB68082B09D1FB6893F8C3
:100E6C004030DBB2012B0CBF01230023DBB208E0C6
:100E7C00FB6893F84130DBB2012B0CBF012300233C
:100E8C00DBB2002B24D07B68002B02D07B88002B9C
:100E9C0001D1012319E1BB68002B04D1FB680222AC
:100EAC0083F83E2016E0BB68042B04D1FB680222B9
:100EBC0083F83F200EE0BB68082B04D1FB680222AC
:100ECC0083F8402006E0FB68022283F8412001E011
:100EDC000123FAE0BB680C2B00F2AE8001A252F8A1
:100EEC0023F000BF250F000845100008451000082E
:100EFC00451000086D0F000845100008451000084B
:100F0C0045100008B50F00084510000845100008F2
:100F1C0045100008FD0F0008FB685B6A6D4A9A6279
:100F2C00FB685B6A6C4ADA62FB685B6A6B4A1A6341
:100F3C00FB68586A7968FB681B6834331A467B88EF
:100F4C0008F0B5F90346002B01D00123BDE0FB6886
:100F5C001B68DA68FB681B6842F40072DA606EE0AA
:100F6C00FB689B6A5B4A9A62FB689B6A5A4ADA6224
:100F7C00FB689B6A594A1A63FB68986A7968FB6834
:100F8C001B6838331A467B8808F091F90346002B0E
:100F9C0001D0012399E0FB681B68DA68FB681B68C9
:100FAC0042F48062DA604AE0FB68DB6A494A9A6282
:100FBC00FB68DB6A484ADA62FB68DB6A474A1A63F9
:100FCC00FB68D86A7968FB681B683C331A467B88D7
:100FDC0008F06DF90346002B01D0012375E0FB6886
:100FEC001B68DA68FB681B6842F40062DA6026E072
:100FFC00FB681B6B374A9A62FB681B6B364ADA62DA
:10100C00FB681B6B354A1A63FB68186B7968FB68C5
:10101C001B6840331A467B8808F049F90346002BBD
:10102C0001D0012351E0FB681B68DA68FB681B6880
:10103C0042F48052DA6002E00123FB7500BFFB7DB5
:10104C00002B41D1FB681B680122B968184604F0DB
:10105C0048FDFB681B68224A934207D1FB681B685A
:10106C005A6CFB681B6842F400425A64FB681B68AC
:10107C001B4A93420ED0FB681B68B3F1804F09D01A
:10108C00FB681B68174A934204D0FB681B68164A1E
:10109C00934211D1FB681B689B6803F007033B610B
:1010AC003B69062B10D0FB681B681A68FB681B6831
:1010BC0042F001021A6007E0FB681B681A68FB68C3
:1010CC001B6842F001021A60FB7D18461837BD46BA
:1010DC0080BD00BFC54F00086D500008334F00089D
:1010EC00002C0140000400400008004080B584B092
:1010FC0000AF786039600023FB733B680C2B55D82C
:10110C0001A252F823F000BF49110008B9110008E0
:10111C00B9110008B911000865110008B9110008CF
:10112C00B9110008B911000881110008B9110008A3
:10113C00B9110008B91100089D1100087B681B68E3
:10114C00DA687B681B6822F40072DA607B685B6A81
:10115C00184608F047F92CE07B681B68DA687B6856
:10116C001B6822F48062DA607B689B6A184608F080
:10117C0039F91EE07B681B68DA687B681B6822F40F
:10118C000062DA607B68DB6A184608F02BF910E025
:10119C007B681B68DA687B681B6822F48052DA6013
:1011AC007B681B6B184608F01DF902E00123FB73EA
:1011BC0000BFFB7B002B57D17B681B680022396872
:1011CC00184604F08EFC7B681B682A4A934217D1A0
:1011DC007B681B681A6A41F211131340002B0FD164
:1011EC007B681B681A6A40F244431340002B07D1FA
:1011FC007B681B685A6C7B681B6822F400425A643B
:10120C007B681B681A6A41F211131340002B0FD133
:10121C007B681B681A6A40F244431340002B07D1C9
:10122C007B681B681A687B681B6822F001021A60D5
:10123C003B68002B04D17B68012283F83E2013E02D
:10124C003B68042B04D17B68012283F83F200BE020
:10125C003B68082B04D17B68012283F8402003E013
:10126C007B68012283F84120FB7B18461037BD4672
:10127C0080BD00BF002C014080B582B000AF78600B
:10128C007B68002B01D1012341E07B6893F83D3052
:10129C00DBB2002B06D17B68002283F83C207868F7
:1012AC0000F08DF87B68022283F83D207B681A6879
:1012BC007B6804331946104603F0E8FF7B68012273
:1012CC0083F846207B68012283F83E207B6801224C
:1012DC0083F83F207B68012283F840207B68012241
:1012EC0083F841207B68012283F842207B6801222D
:1012FC0083F843207B68012283F844207B68012219
:10130C0083F845207B68012283F83D200023184692
:10131C000837BD4680BD80B582B000AF78607B6871
:10132C00022283F83D207B681B681A6A41F2111374
:10133C001340002B0FD17B681B681A6A40F24443A0
:10134C001340002B07D17B681B681A687B681B68ED
:10135C0022F001021A60786800F03AF87B680022EB
:10136C0083F846207B68002283F83E207B680022AD
:10137C0083F83F207B68002283F840207B680022A2
:10138C0083F841207B68002283F842207B6800228E
:10139C0083F843207B68002283F844207B6800227A
:1013AC0083F845207B68002283F83D207B6800226F
:1013BC0083F83C20002318460837BD4680BD80B416
:1013CC0083B000AF786000BF0C37BD4680BC70475F
:1013DC0080B483B000AF786000BF0C37BD4680BCD2
:1013EC00704780B584B000AF786039603B68002BE3
:1013FC0009D17B6893F83E30DBB2012B14BF01237B
:10140C000023DBB222E03B68042B09D17B6893F804
:10141C003F30DBB2012B14BF01230023DBB215E0FC
:10142C003B68082B09D17B6893F84030DBB2012B69
:10143C0014BF01230023DBB208E07B6893F8413032
:10144C00DBB2012B14BF01230023DBB2002B01D034
:10145C0001235EE03B68002B04D17B68022283F8F9
:10146C003E2013E03B68042B04D17B68022283F8F6
:10147C003F200BE03B68082B04D17B68022283F8E9
:10148C00402003E07B68022283F841207B681B68C4
:10149C0001223968184604F024FB7B681B681F4A3C
:1014AC00934207D17B681B685A6C7B681B6842F4BB
:1014BC0000425A647B681B68184A93420ED07B68C2
:1014CC001B68B3F1804F09D07B681B68144A9342A8
:1014DC0004D07B681B68134A934211D17B681B684C
:1014EC009B6803F00703FB60FB68062B10D07B683E
:1014FC001B681A687B681B6842F001021A6007E0DF
:10150C007B681B681A687B681B6842F001021A60D2
:10151C00002318461037BD4680BD00BF002C01408B
:10152C00000400400008004080B582B000AF786035
:10153C0039607B681B6800223968184604F0D1FAC0
:10154C007B681B68294A934217D17B681B681A6A0F
:10155C0041F211131340002B0FD17B681B681A6AE0
:10156C0040F244431340002B07D17B681B685A6C34
:10157C007B681B6822F400425A647B681B681A6AF9
:10158C0041F211131340002B0FD17B681B681A6AB0
:10159C0040F244431340002B07D17B681B681A6848
:1015AC007B681B6822F001021A603B68002B04D197
:1015BC007B68012283F83E2013E03B68042B04D1A6
:1015CC007B68012283F83F200BE03B68082B04D199
:1015DC007B68012283F8402003E07B68012283F8BA
:1015EC004120002318460837BD4680BD002C014021
:1015FC0080B584B000AF786039600023FB733B6822
:10160C00002B09D17B6893F83E30DBB2012B14BF61
:10161C0001230023DBB222E03B68042B09D17B6859
:10162C0093F83F30DBB2012B14BF01230023DBB254
:10163C0015E03B68082B09D17B6893F84030DBB28E
:10164C00012B14BF01230023DBB208E07B6893F865
:10165C004130DBB2012B14BF01230023DBB2002B82
:10166C0001D00123A9E03B68002B04D17B68022246
:10167C0083F83E2013E03B68042B04D17B680222E4
:10168C0083F83F200BE03B68082B04D17B680222D7
:10169C0083F8402003E07B68022283F841203B68FA
:1016AC000C2B41D801A252F823F000BFED16000814
:1016BC00351700083517000835170008FF16000805
:1016CC0035170008351700083517000811170008E2
:1016DC0035170008351700083517000823170008C0
:1016EC007B681B68DA687B681B6842F00202DA6070
:1016FC001DE07B681B68DA687B681B6842F004029B
:10170C00DA6014E07B681B68DA687B681B6842F05F
:10171C000802DA600BE07B681B68DA687B681B6880
:10172C0042F01002DA6002E00123FB7300BFFB7B86
:10173C00002B41D17B681B6801223968184604F0E4
:10174C00D0F97B681B681F4A934207D17B681B68E2
:10175C005A6C7B681B6842F400425A647B681B68B5
:10176C00184A93420ED07B681B68B3F1804F09D0A6
:10177C007B681B68144A934204D07B681B68134A2D
:10178C00934211D17B681B689B6803F00703BB6015
:10179C00BB68062B10D07B681B681A687B681B68BB
:1017AC0042F001021A6007E07B681B681A687B68CC
:1017BC001B6842F001021A60FB7B18461037BD46CD
:1017CC0080BD00BF002C0140000400400008004018
:1017DC0080B584B000AF786039600023FB733B6840
:1017EC000C2B41D801A252F823F000BF2D18000891
:1017FC007518000875180008751800083F180008BF
:10180C00751800087518000875180008511800089C
:10181C00751800087518000875180008631800087A
:10182C007B681B68DA687B681B6822F00202DA604E
:10183C001DE07B681B68DA687B681B6822F0040279
:10184C00DA6014E07B681B68DA687B681B6822F03E
:10185C000802DA600BE07B681B68DA687B681B683F
:10186C0022F01002DA6002E00123FB7300BFFB7B65
:10187C00002B57D17B681B6800223968184604F08E
:10188C0030F97B681B682A4A934217D17B681B6826
:10189C001A6A41F211131340002B0FD17B681B689D
:1018AC001A6A40F244431340002B07D17B681B6833
:1018BC005A6C7B681B6822F400425A647B681B6874
:1018CC001A6A41F211131340002B0FD17B681B686D
:1018DC001A6A40F244431340002B07D17B681B6803
:1018EC001A687B681B6822F001021A603B68002BA7
:1018FC0004D17B68012283F83E2013E03B68042B63
:10190C0004D17B68012283F83F200BE03B68082B55
:10191C0004D17B68012283F8402003E07B6801221C
:10192C0083F84120FB7B18461037BD4680BD00BFB5
:10193C00002C014080B586B000AFF860B9607A60C9
:10194C007B800023FB75BB68002B09D1FB6893F8E7
:10195C003E30DBB2022B0CBF01230023DBB222E0B2
:10196C00BB68042B09D1FB6893F83F30DBB2022B28
:10197C000CBF01230023DBB215E0BB68082B09D197
:10198C00FB6893F84030DBB2022B0CBF0123002321
:10199C00DBB208E0FB6893F84130DBB2022B0CBFE2
:1019AC0001230023DBB2002B01D0022353E1BB68DF
:1019BC00002B09D1FB6893F83E30DBB2012B0CBF36
:1019CC0001230023DBB222E0BB68042B09D1FB68A6
:1019DC0093F83F30DBB2012B0CBF01230023DBB2A9
:1019EC0015E0BB68082B09D1FB6893F84030DBB2DB
:1019FC00012B0CBF01230023DBB208E0FB6893F83A
:101A0C004130DBB2012B0CBF01230023DBB2002BD6
:101A1C0024D07B68002B02D07B88002B01D10123C2
:101A2C0019E1BB68002B04D1FB68022283F83E202D
:101A3C0016E0BB68042B04D1FB68022283F83F201C
:101A4C000EE0BB68082B04D1FB68022283F840200F
:101A5C0006E0FB68022283F8412001E00123FAE052
:101A6C00BB680C2B00F2AE8001A252F823F000BF31
:101A7C00B11A0008D11B0008D11B0008D11B0008AB
:101A8C00F91A0008D11B0008D11B0008D11B000853
:101A9C00411B0008D11B0008D11B0008D11B0008FA
:101AAC00891B0008FB685B6A6D4A9A62FB685B6A7B
:101ABC006C4ADA62FB685B6A6B4A1A63FB68586AA9
:101ACC007968FB681B6834331A467B8807F0EFFB98
:101ADC000346002B01D00123BDE0FB681B68DA68CC
:101AEC00FB681B6842F40072DA606EE0FB689B6A6C
:101AFC005B4A9A62FB689B6A5A4ADA62FB689B6A89
:101B0C00594A1A63FB68986A7968FB681B68383312
:101B1C001A467B8807F0CBFB0346002B01D0012330
:101B2C0099E0FB681B68DA68FB681B6842F480620A
:101B3C00DA604AE0FB68DB6A494A9A62FB68DB6A56
:101B4C00484ADA62FB68DB6A474A1A63FB68D86A60
:101B5C007968FB681B683C331A467B8807F0A7FB47
:101B6C000346002B01D0012375E0FB681B68DA6883
:101B7C00FB681B6842F40062DA6026E0FB681B6BB2
:101B8C00374A9A62FB681B6B364ADA62FB681B6B3E
:101B9C00354A1A63FB68186B7968FB681B6840331D
:101BAC001A467B8807F083FB0346002B01D00123E8
:101BBC0051E0FB681B68DA68FB681B6842F48052D2
:101BCC00DA6002E00123FB7500BFFB7D002B41D1E5
:101BDC00FB681B680122B968184603F082FFFB689A
:101BEC001B68224A934207D1FB681B685A6CFB683E
:101BFC001B6842F400425A64FB681B681B4A934200
:101C0C000ED0FB681B68B3F1804F09D0FB681B68D2
:101C1C00174A934204D0FB681B68164A934211D1B1
:101C2C00FB681B689B6803F007033B613B69062B51
:101C3C0010D0FB681B681A68FB681B6842F0010235
:101C4C001A6007E0FB681B681A68FB681B6842F0A7
:101C5C0001021A60FB7D18461837BD4680BD00BFD7
:101C6C00C54F00086D500008334F0008002C014090
:101C7C00000400400008004080B584B000AF7860DC
:101C8C0039600023FB733B680C2B55D801A252F82A
:101C9C0023F000BFD51C0008451D0008451D000899
:101CAC00451D0008F11C0008451D0008451D0008D5
:101CBC00451D00080D1D0008451D0008451D0008A8
:101CCC00451D0008291D00087B681B68DA687B68C5
:101CDC001B6822F40072DA607B685B6A184607F0B6
:101CEC0081FB2CE07B681B68DA687B681B6822F43C
:101CFC008062DA607B689B6A184607F073FB1EE013
:101D0C007B681B68DA687B681B6822F40062DA6007
:101D1C007B68DB6A184607F065FB10E07B681B6884
:101D2C00DA687B681B6822F48052DA607B681B6B74
:101D3C00184607F057FB02E00123FB7300BFFB7B47
:101D4C00002B57D17B681B6800223968184603F0BA
:101D5C00C8FE7B681B682A4A934217D17B681B68B4
:101D6C001A6A41F211131340002B0FD17B681B68C8
:101D7C001A6A40F244431340002B07D17B681B685E
:101D8C005A6C7B681B6822F400425A647B681B689F
:101D9C001A6A41F211131340002B0FD17B681B6898
:101DAC001A6A40F244431340002B07D17B681B682E
:101DBC001A687B681B6822F001021A603B68002BD2
:101DCC0004D17B68012283F83E2013E03B68042B8E
:101DDC0004D17B68012283F83F200BE03B68082B81
:101DEC0004D17B68012283F8402003E07B68012248
:101DFC0083F84120FB7B18461037BD4680BD00BFE1
:101E0C00002C014080B582B000AF78607B68002B5D
:101E1C0001D1012341E07B6893F83D30DBB2002B0C
:101E2C0006D17B68002283F83C20786800F08DF89E
:101E3C007B68022283F83D207B681A687B68043338
:101E4C001946104603F022FA7B68012283F84620DB
:101E5C007B68012283F83E207B68012283F83F20B7
:101E6C007B68012283F840207B68012283F84120A3
:101E7C007B68012283F842207B68012283F843208F
:101E8C007B68012283F844207B68012283F845207B
:101E9C007B68012283F83D20002318460837BD4695
:101EAC0080BD80B582B000AF78607B68022283F879
:101EBC003D207B681B681A6A41F211131340002BFA
:101ECC000FD17B681B681A6A40F244431340002B05
:101EDC0007D17B681B681A687B681B6822F00102BB
:101EEC001A60786800F03AF87B68002283F8462084
:101EFC007B68002283F83E207B68002283F83F2019
:101F0C007B68002283F840207B68002283F8412004
:101F1C007B68002283F842207B68002283F84320F0
:101F2C007B68002283F844207B68002283F84520DC
:101F3C007B68002283F83D207B68002283F83C20DC
:101F4C00002318460837BD4680BD80B483B000AF6F
:101F5C00786000BF0C37BD4680BC704780B483B03E
:101F6C0000AF786000BF0C37BD4680BC704780B5B1
:101F7C0084B000AF786039603B68002B04D17B687B
:101F8C0093F83E30DBB213E03B68042B04D17B6842
:101F9C0093F83F30DBB20BE03B68082B04D17B6835
:101FAC0093F84030DBB203E07B6893F84130DBB24E
:101FBC00FB733B68002B04D17B6893F84230DBB297
:101FCC0013E03B68042B04D17B6893F84330DBB2FD
:101FDC000BE03B68082B04D17B6893F84430DBB2F0
:101FEC0003E07B6893F84530DBB2BB73FB7B012BC2
:101FFC0002D1BB7B012B01D001236DE03B68002B90
:10200C0004D17B68022283F83E2013E03B68042B4A
:10201C0004D17B68022283F83F200BE03B68082B3D
:10202C0004D17B68022283F8402003E07B68022203
:10203C0083F841203B68002B04D17B68022283F893
:10204C00422013E03B68042B04D17B68022283F806
:10205C0043200BE03B68082B04D17B68022283F8F9
:10206C00442003E07B68022283F845207B681B68D0
:10207C0001223968184603F034FD7B681B68184A46
:10208C0093420ED07B681B68B3F1804F09D07B68FC
:10209C001B68144A934204D07B681B68124A934213
:1020AC0011D17B681B689B6803F00703BB60BB689E
:1020BC00062B10D07B681B681A687B681B6842F083
:1020CC0001021A6007E07B681B681A687B681B6852
:1020DC0042F001021A60002318461037BD4680BD3D
:1020EC00002C0140000400400008004080B582B084
:1020FC0000AF786039607B681B680022396818462D
:10210C0003F0EFFC7B681B681A6A41F21113134051
:10211C00002B0FD17B681B681A6A40F244431340B2
:10212C00002B07D17B681B681A687B681B6822F040
:10213C0001021A603B68002B04D17B68012283F8F2
:10214C003E2013E03B68042B04D17B68012283F80A
:10215C003F200BE03B68082B04D17B68012283F8FD
:10216C00402003E07B68012283F841203B68002B70
:10217C0004D17B68012283F8422013E03B68042BD6
:10218C0004D17B68012283F843200BE03B68082BC9
:10219C0004D17B68012283F8442003E07B68012290
:1021AC0083F84520002318460837BD4680BD80B50E
:1021BC0084B000AF786039600023FB733B68002B60
:1021CC0004D17B6893F83E30DBB213E03B68042B00
:1021DC0004D17B6893F83F30DBB20BE03B68082BF3
:1021EC0004D17B6893F84030DBB203E07B6893F852
:1021FC004130DBB2BB733B68002B04D17B6893F896
:10220C004230DBB213E03B68042B04D17B6893F8BB
:10221C004330DBB20BE03B68082B04D17B6893F8AE
:10222C004430DBB203E07B6893F84530DBB27B7360
:10223C00BB7B012B02D17B7B012B01D00123B7E0AF
:10224C003B68002B04D17B68022283F83E2013E00C
:10225C003B68042B04D17B68022283F83F200BE0FF
:10226C003B68082B04D17B68022283F8402003E0F2
:10227C007B68022283F841203B68002B04D17B68E9
:10228C00022283F8422013E03B68042B04D17B68C4
:10229C00022283F843200BE03B68082B04D17B68B7
:1022AC00022283F8442003E07B68022283F8452055
:1022BC003B680C2B40D801A252F823F0FD220008F9
:1022CC004523000845230008452300080F23000878
:1022DC004523000845230008452300082123000856
:1022EC004523000845230008452300083323000834
:1022FC007B681B68DA687B681B6842F00202DA6054
:10230C001DE07B681B68DA687B681B6842F004027E
:10231C00DA6014E07B681B68DA687B681B6842F043
:10232C000802DA600BE07B681B68DA687B681B6864
:10233C0042F01002DA6002E00123FB7300BFFB7B6A
:10234C00002B34D17B681B6801223968184603F0D6
:10235C00C8FB7B681B68184A93420ED07B681B68CD
:10236C00B3F1804F09D07B681B68144A934204D0A8
:10237C007B681B68124A934211D17B681B689B686F
:10238C0003F00703BB60BB68062B10D07B681B688F
:10239C001A687B681B6842F001021A6007E07B68D0
:1023AC001B681A687B681B6842F001021A60FB7B91
:1023BC0018461037BD4680BD002C0140000400407B
:1023CC000008004080B584B000AF7860396000230D
:1023DC00FB733B680C2B41D801A252F823F000BFD1
:1023EC0021240008692400086924000869240008D5
:1023FC0033240008692400086924000869240008B3
:10240C004524000869240008692400086924000890
:10241C00572400087B681B68DA687B681B6822F00D
:10242C000202DA601DE07B681B68DA687B681B6857
:10243C0022F00402DA6014E07B681B68DA687B68BF
:10244C001B6822F00802DA600BE07B681B68DA6814
:10245C007B681B6822F01002DA6002E00123FB7338
:10246C0000BFFB7B002B56D17B681B6800223968B0
:10247C00184603F036FB7B681B681A6A41F211138D
:10248C001340002B0FD17B681B681A6A40F244433F
:10249C001340002B07D17B681B681A687B681B688C
:1024AC0022F001021A603B68002B04D17B680122E8
:1024BC0083F83E2013E03B68042B04D17B68012297
:1024CC0083F83F200BE03B68082B04D17B6801228A
:1024DC0083F8402003E07B68012283F841203B68AD
:1024EC00002B04D17B68012283F8422013E03B6867
:1024FC00042B04D17B68012283F843200BE03B685A
:10250C00082B04D17B68012283F8442003E07B680C
:10251C00012283F84520FB7B18461037BD4680BD51
:10252C0080B586B000AFF860B9607A607B8000231C
:10253C00FB75BB68002B04D1FB6893F83E30DBB213
:10254C0013E0BB68042B04D1FB6893F83F30DBB27B
:10255C000BE0BB68082B04D1FB6893F84030DBB26E
:10256C0003E0FB6893F84130DBB2BB75BB68002B12
:10257C0004D1FB6893F84230DBB213E0BB68042B48
:10258C0004D1FB6893F84330DBB20BE0BB68082B3B
:10259C0004D1FB6893F84430DBB203E0FB6893F89A
:1025AC004530DBB27B75BB7D022B02D07B7D022BD1
:1025BC0001D1022332E1BB7D012B43D17B7D012B69
:1025CC0040D17B68002B02D07B88002B01D10123EA
:1025DC0024E1BB68002B04D1FB68022283F83E2067
:1025EC0013E0BB68042B04D1FB68022283F83F2064
:1025FC000BE0BB68082B04D1FB68022283F8402057
:10260C0003E0FB68022283F84120BB68002B04D155
:10261C00FB68022283F8422016E0BB68042B04D12D
:10262C00FB68022283F843200EE0BB68082B04D120
:10263C00FB68022283F8442006E0FB68022283F840
:10264C00452001E00123E9E0FB681B680122B96821
:10265C00184603F046FABB680C2B00F2AD8001A2C1
:10266C0052F823F0A5260008C5270008C527000846
:10267C00C5270008ED260008C5270008C527000857
:10268C00C527000835270008C5270008C5270008FE
:10269C00C52700087D270008FB685B6A614A9A62BF
:1026AC00FB685B6A604ADA62FB685B6A5F4A1A63C2
:1026BC00FB68586AFB681B68343319467A687B8858
:1026CC0006F0F5FD0346002B01D00123A6E0FB68C4
:1026DC001B68DA68FB681B6842F40072DA606EE013
:1026EC00FB689B6A4F4A9A62FB689B6A4E4ADA62A5
:1026FC00FB689B6A4D4A1A63FB68986AFB681B6807
:10270C00383319467A687B8806F0D1FD0346002BD6
:10271C0001D0012382E0FB681B68DA68FB681B6848
:10272C0042F48062DA604AE0FB68DB6A3D4A9A62F6
:10273C00FB68DB6A3C4ADA62FB68DB6A3B4A1A6379
:10274C00FB68D86AFB681B683C3319467A687B883F
:10275C0006F0ADFD0346002B01D001235EE0FB68C3
:10276C001B68DA68FB681B6842F40062DA6026E0DA
:10277C00FB681B6B2B4A9A62FB681B6B2A4ADA625A
:10278C00FB681B6B294A1A63FB68186BFB681B6898
:10279C00403319467A687B8806F089FD0346002B86
:1027AC0001D001233AE0FB681B68DA68FB681B6800
:1027BC0042F48052DA6002E00123FB7500BFFB6833
:1027CC001B681B4A93420ED0FB681B68B3F1804F09
:1027DC0009D0FB681B68174A934204D0FB681B683E
:1027EC00154A934211D1FB681B689B6803F00703E1
:1027FC003B613B69062B10D0FB681B681A68FB68B1
:10280C001B6842F001021A6007E0FB681B681A683B
:10281C00FB681B6842F001021A60FB7D18461837F2
:10282C00BD4680BDD55000089D510008334F0008AF
:10283C00002C0140000400400008004080B584B02A
:10284C0000AF786039600023FB737B681B68002243
:10285C003968184603F045F93B680C2B54D801A293
:10286C0052F823F0A528000815290008152900089E
:10287C0015290008C1280008152900081529000889
:10288C0015290008DD28000815290008152900085D
:10289C0015290008F92800087B681B68DA687B6832
:1028AC001B6822F40072DA607B685B6A184606F0DB
:1028BC0099FD2CE07B681B68DA687B681B6822F446
:1028CC008062DA607B689B6A184606F08BFD1EE01E
:1028DC007B681B68DA687B681B6822F40062DA602C
:1028EC007B68DB6A184606F07DFD10E07B681B6890
:1028FC00DA687B681B6822F48052DA607B681B6B99
:10290C00184606F06FFD02E00123FB7300BFFB7B52
:10291C00002B4FD17B681B681A6A41F211131340CC
:10292C00002B0FD17B681B681A6A40F2444313409A
:10293C00002B07D17B681B681A687B681B6822F028
:10294C0001021A603B68002B04D17B68012283F8DA
:10295C003E2013E03B68042B04D17B68012283F8F2
:10296C003F200BE03B68082B04D17B68012283F8E5
:10297C00402003E07B68012283F841203B68002B58
:10298C0004D17B68012283F8422013E03B68042BBE
:10299C0004D17B68012283F843200BE03B68082BB1
:1029AC0004D17B68012283F8442003E07B68012278
:1029BC0083F84520FB7B18461037BD4680BD80B59B
:1029CC0082B000AF786039607B68002B01D10123A5
:1029DC0041E07B6893F83D30DBB2002B06D17B687D
:1029EC00002283F83C20786800F07DF87B68022296
:1029FC0083F83D207B681A687B68043319461046BF
:102A0C0002F044FC7B681B681A687B681B6822F028
:102A1C0008021A607B681B6819687B681B683A6837
:102A2C000A431A607B68012283F846207B680122E6
:102A3C0083F83E207B68012283F83F207B680122CB
:102A4C0083F842207B68012283F843207B680122B3
:102A5C0083F83D20002318460837BD4680BD80B55D
:102A6C0082B000AF78607B68022283F83D207B68DF
:102A7C001B681A6A41F211131340002B0FD17B68AB
:102A8C001B681A6A40F244431340002B07D17B6841
:102A9C001B681A687B681B6822F001021A60786850
:102AAC0000F02AF87B68002283F846207B6800221D
:102ABC0083F83E207B68002283F83F207B6800224D
:102ACC0083F842207B68002283F843207B68002235
:102ADC0083F83D207B68002283F83C2000231846B5
:102AEC000837BD4680BD80B483B000AF786000BFAE
:102AFC000C37BD4680BC704780B483B000AF7860A3
:102B0C0000BF0C37BD4680BC704780B584B000AFA9
:102B1C00786039607B6893F83E30FB737B6893F880
:102B2C003F30BB737B6893F842307B737B6893F8C0
:102B3C0043303B73FB7B012B08D1BB7B012B05D1B5
:102B4C007B7B012B02D13B7B012B01D001232BE0A2
:102B5C007B68022283F83E207B68022283F83F20A8
:102B6C007B68022283F842207B68022283F8432090
:102B7C007B681B6801220021184602F0B2FF7B68BB
:102B8C001B6801220421184602F0ABFF7B681B680E
:102B9C00074A934207D17B681B685A6C7B681B6899
:102BAC0042F400425A64002318461037BD4680BDDB
:102BBC00002C014080B582B000AF786039607B6832
:102BCC001B6800220021184602F08BFF7B681B68F3
:102BDC0000220421184602F084FF7B681B68244AFB
:102BEC00934217D17B681B681A6A41F21113134088
:102BFC00002B0FD17B681B681A6A40F244431340C8
:102C0C00002B07D17B681B685A6C7B681B6822F40D
:102C1C0000425A647B681B681A6A41F21113134014
:102C2C00002B0FD17B681B681A6A40F24443134097
:102C3C00002B07D17B681B681A687B681B6822F025
:102C4C0001021A607B68012283F83E207B68012216
:102C5C0083F83F207B68012283F842207B680122A5
:102C6C0083F84320002318460837BD4680BD00BFBB
:102C7C00002C014080B584B000AF786039607B686F
:102C8C0093F83E30FB737B6893F83F30BB737B68E3
:102C9C0093F842307B737B6893F843303B73FB7B38
:102CAC00012B08D1BB7B012B05D17B7B012B02D1E6
:102CBC003B7B012B01D001233BE07B68022283F894
:102CCC003E207B68022283F83F207B68022283F837
:102CDC0042207B68022283F843207B681B68DA68F9
:102CEC007B681B6842F00202DA607B681B68DA685A
:102CFC007B681B6842F00402DA607B681B68012267
:102D0C000021184602F0EDFE7B681B6801220421AD
:102D1C00184602F0E6FE7B681B68084A934207D10E
:102D2C007B681B685A6C7B681B6842F400425A64CF
:102D3C00002318461037BD4680BD00BF002C014053
:102D4C0080B582B000AF786039607B681B68DA6848
:102D5C007B681B6822F00202DA607B681B68DA6809
:102D6C007B681B6822F00402DA607B681B68002217
:102D7C000021184602F0B5FE7B681B680022042176
:102D8C00184602F0AEFE7B681B68244A934217D1AA
:102D9C007B681B681A6A41F211131340002B0FD188
:102DAC007B681B681A6A40F244431340002B07D11E
:102DBC007B681B685A6C7B681B6822F400425A645F
:102DCC007B681B681A6A41F211131340002B0FD158
:102DDC007B681B681A6A40F244431340002B07D1EE
:102DEC007B681B681A687B681B6822F001021A60FA
:102DFC007B68012283F83E207B68012283F83F2008
:102E0C007B68012283F842207B68012283F84320EF
:102E1C00002318460837BD4680BD00BF002C01407A
:102E2C0080B586B000AF786039607B68002B01D12B
:102E3C00012393E07B6893F83D30DBB2002B06D185
:102E4C007B68002283F83C20786800F0CFF87B6820
:102E5C00022283F83D207B681B689B687A681268A5
:102E6C0023F4804323F0070393607B681A687B6824
:102E7C0004331946104602F009FA7B681B689B68FC
:102E8C007B617B681B689B693B617B681B681B6A69
:102E9C00FB603B681B687A6913437B613B6923F4D5
:102EAC00407323F003033B613B689A683B689B6962
:102EBC001B0213433A6913433B613B6923F44063A0
:102ECC0023F00C033B613B6923F4704323F0F003C4
:102EDC003B613B68DA683B68DB691B0213433A6968
:102EEC0013433B613B681B691A013B681B6A1B035C
:102EFC0013433A6913433B61FB6823F02203FB60E5
:102F0C003B685A683B685B691B011343FA681343BF
:102F1C00FB607B681B687A699A607B681B683A69FE
:102F2C009A617B681B68FA681A627B68012283F8D5
:102F3C0046207B68012283F83E207B68012283F8BF
:102F4C003F207B68012283F842207B68012283F8B2
:102F5C0043207B68012283F83D2000231846183754
:102F6C00BD4680BD80B582B000AF78607B68022220
:102F7C0083F83D207B681B681A6A41F211131340D9
:102F8C00002B0FD17B681B681A6A40F24443134034
:102F9C00002B07D17B681B681A687B681B6822F0C2
:102FAC0001021A60786800F02AF87B68002283F826
:102FBC0046207B68002283F83E207B68002283F841
:102FCC003F207B68002283F842207B68002283F834
:102FDC0043207B68002283F83D207B68002283F825
:102FEC003C20002318460837BD4680BD80B483B012
:102FFC0000AF786000BF0C37BD4680BC704780B412
:10300C0083B000AF786000BF0C37BD4680BC704702
:10301C0080B584B000AF786039607B6893F83E303F
:10302C00FB737B6893F83F30BB737B6893F842303B
:10303C007B737B6893F843303B733B68002B10D158
:10304C00FB7B012B02D17B7B012B01D0012369E09F
:10305C007B68022283F83E207B68022283F84220A0
:10306C0031E03B68042B10D1BB7B012B02D13B7BA5
:10307C00012B01D0012355E07B68022283F83F200D
:10308C007B68022283F843201DE0FB7B012B08D1D7
:10309C00BB7B012B05D17B7B012B02D13B7B012B15
:1030AC0001D001233EE07B68022283F83E207B683E
:1030BC00022283F83F207B68022283F842207B683F
:1030CC00022283F843203B68002B03D03B68042B7F
:1030DC0008D00FE07B681B6801220021184602F023
:1030EC0000FD16E07B681B6801220421184602F0E3
:1030FC00F8FC0EE07B681B6801220021184602F0E8
:10310C00F0FC7B681B6801220421184602F0E9FCE4
:10311C0000BF7B681B681A687B681B6842F0010261
:10312C001A60002318461037BD4680BD80B582B0AA
:10313C0000AF786039603B68002B03D03B68042BF0
:10314C0008D00FE07B681B6800220021184602F0B3
:10315C00C8FC16E07B681B6800220421184602F0AC
:10316C00C0FC0EE07B681B6800220021184602F0B0
:10317C00B8FC7B681B6800220421184602F0B1FCE5
:10318C0000BF7B681B681A6A41F211131340002BB5
:10319C000FD17B681B681A6A40F244431340002B22
:1031AC0007D17B681B681A687B681B6822F00102D8
:1031BC001A603B68002B02D03B68042B38D13B686B
:1031CC00002B04D17B68012283F83E2013E03B687E
:1031DC00042B04D17B68012283F83F200BE03B6871
:1031EC00082B04D17B68012283F8402003E07B6824
:1031FC00012283F841203B68002B04D17B6801221B
:10320C0083F8422024E03B68042B04D17B68012224
:10321C0083F843201CE03B68082B04D17B68012217
:10322C0083F8442014E07B68012283F845200FE0EA
:10323C007B68012283F83E207B68012283F83F20C3
:10324C007B68012283F842207B68012283F84320AB
:10325C00002318460837BD4680BD80B584B000AF4A
:10326C00786039607B6893F83E30FB737B6893F829
:10327C003F30BB737B6893F842307B737B6893F869
:10328C0043303B733B68002B10D1FB7B012B02D1ED
:10329C007B7B012B01D0012389E07B68022283F820
:1032AC003E207B68022283F8422031E03B68042BED
:1032BC0010D1BB7B012B02D13B7B012B01D0012315
:1032CC0075E07B68022283F83F207B68022283F83A
:1032DC0043201DE0FB7B012B08D1BB7B012B05D1CF
:1032EC007B7B012B02D13B7B012B01D001235EE0C8
:1032FC007B68022283F83E207B68022283F83F2001
:10330C007B68022283F842207B68022283F84320E8
:10331C003B68002B03D03B68042B10D01FE07B686C
:10332C001B6801220021184602F0DBFB7B681B683E
:10333C00DA687B681B6842F00202DA602EE07B6878
:10334C001B6801220421184602F0CBFB7B681B682A
:10335C00DA687B681B6842F00402DA601EE07B6866
:10336C001B6801220021184602F0BBFB7B681B681E
:10337C0001220421184602F0B4FB7B681B68DA6852
:10338C007B681B6842F00202DA607B681B68DA68B3
:10339C007B681B6842F00402DA6000BF7B681B6824
:1033AC001A687B681B6842F001021A6000231846F9
:1033BC001037BD4680BD80B582B000AF78603960F3
:1033CC003B68002B0FD17B681B680022002118463C
:1033DC0002F087FB7B681B68DA687B681B6822F04D
:1033EC000202DA6030E03B68042B0FD17B681B686B
:1033FC0000220421184602F074FB7B681B68DA6813
:10340C007B681B6822F00402DA601DE07B681B6895
:10341C0000220021184602F064FB7B681B68002226
:10342C000421184602F05DFB7B681B68DA687B6838
:10343C001B6822F00202DA607B681B68DA687B6822
:10344C001B6822F00402DA607B681B681A6A41F27E
:10345C0011131340002B0FD17B681B681A6A40F2C2
:10346C0044431340002B07D17B681B681A687B68A8
:10347C001B6822F001021A603B68002B02D03B68EB
:10348C00042B38D13B68002B04D17B68012283F8D4
:10349C003E2013E03B68042B04D17B68012283F8A7
:1034AC003F200BE03B68082B04D17B68012283F89A
:1034BC00402003E07B68012283F841203B68002B0D
:1034CC0004D17B68012283F8422024E03B68042B62
:1034DC0004D17B68012283F843201CE03B68082B55
:1034EC0004D17B68012283F8442014E07B6801221C
:1034FC0083F845200FE07B68012283F83E207B682F
:10350C00012283F83F207B68012283F842207B68EC
:10351C00012283F84320002318460837BD4680BD9E
:10352C0080B586B000AFF860B9607A603B60FB682C
:10353C0093F83E30FB75FB6893F83F30BB75FB6826
:10354C0093F842307B75FB6893F843303B75BB684E
:10355C00002B20D1FB7D022B02D07B7D022B01D1D5
:10356C0002233FE1FB7D012B13D17B7D012B10D17D
:10357C007B68002B02D03B8C002B01D1012331E165
:10358C00FB68022283F83E20FB68022283F842206B
:10359C005DE0012326E1BB68042B20D1BB7D022B0F
:1035AC0002D03B7D022B01D102231BE1BB7D012B01
:1035BC0013D13B7D012B10D13B68002B02D03B8CEF
:1035CC00002B01D101230DE1FB68022283F83F207F
:1035DC00FB68022283F8432039E0012302E1FB7DE2
:1035EC00022B08D0BB7D022B05D07B7D022B02D099
:1035FC003B7D022B01D10223F4E0FB7D012B24D176
:10360C00BB7D012B21D17B7D012B1ED13B7D012B61
:10361C001BD17B68002B05D03B68002B02D03B8C68
:10362C00002B01D10123DDE0FB68022283F83E2050
:10363C00FB68022283F83F20FB68022283F84220B9
:10364C00FB68022283F8432001E00123CAE0BB6837
:10365C00002B03D0BB68042B33D065E0FB685B6A9E
:10366C00624A9A62FB685B6A614ADA62FB685B6A6F
:10367C00604A1A63FB68586AFB681B683433194646
:10368C007A683B8C05F013FE0346002B01D0012316
:10369C00A8E0FB681B68DA68FB681B6842F40072E0
:1036AC00DA60FB681B6801220021184602F019FA47
:1036BC00FB681B681A68FB681B6842F001021A6001
:1036CC008FE0FB689B6A494A9A62FB689B6A484A8E
:1036DC00DA62FB689B6A474A1A63FB68986AFB6864
:1036EC001B68383319463A683B8C05F0E0FD0346FD
:1036FC00002B01D0012375E0FB681B68DA68FB68BE
:10370C001B6842F48062DA60FB681B6801220421AA
:10371C00184602F0E6F9FB681B681A68FB681B6820
:10372C0042F001021A605CE0FB685B6A2F4A9A6205
:10373C00FB685B6A2E4ADA62FB685B6A2D4A1A6385
:10374C00FB68586AFB681B68343319467A683B8CF3
:10375C0005F0ADFD0346002B01D0012342E0FB68D0
:10376C009B6A224A9A62FB689B6A214ADA62FB686E
:10377C009B6A204A1A63FB68986AFB681B6838339B
:10378C0019463A683B8C05F092FD0346002B01D09C
:10379C00012327E0FB681B68DA68FB681B6842F4AE
:1037AC000072DA60FB681B68DA68FB681B6842F41D
:1037BC008062DA60FB681B6801220021184602F067
:1037CC0090F9FB681B6801220421184602F089F964
:1037DC00FB681B681A68FB681B6842F001021A60E0
:1037EC0000BF002318461837BD4680BDD5500008D1
:1037FC009D510008334F000880B582B000AF78604F
:10380C0039603B68002B14D17B681B6800220021B7
:10381C00184602F066F97B681B68DA687B681B68DF
:10382C0022F40072DA607B685B6A184605F0DAFDF8
:10383C003FE03B68042B14D17B681B6800220421F9
:10384C00184602F04EF97B681B68DA687B681B68C7
:10385C0022F48062DA607B689B6A184605F0C2FD30
:10386C0027E07B681B6800220021184602F039F91A
:10387C007B681B6800220421184602F032F97B6831
:10388C001B68DA687B681B6822F40072DA607B685C
:10389C001B68DA687B681B6822F48062DA607B68DC
:1038AC005B6A184605F09EFD7B689B6A184605F01E
:1038BC0099FD7B681B681A6A41F211131340002BA7
:1038CC000FD17B681B681A6A40F244431340002BEB
:1038DC0007D17B681B681A687B681B6822F00102A1
:1038EC001A603B68002B02D03B68042B38D13B6834
:1038FC00002B04D17B68012283F83E2013E03B6847
:10390C00042B04D17B68012283F83F200BE03B6839
:10391C00082B04D17B68012283F8402003E07B68EC
:10392C00012283F841203B68002B04D17B680122E3
:10393C0083F8422024E03B68042B04D17B680122ED
:10394C0083F843201CE03B68082B04D17B680122E0
:10395C0083F8442014E07B68012283F845200FE0B3
:10396C007B68012283F83E207B68012283F83F208C
:10397C007B68012283F842207B68012283F8432074
:10398C00002318460837BD4680BD80B584B000AF13
:10399C0078607B681B68DB68FB607B681B681B6955
:1039AC00BB60BB6803F00203002B20D0FB6803F064
:1039BC000203002B1BD07B681B686FF002021A619C
:1039CC007B6801221A777B681B689B6903F00303F1
:1039DC00002B03D0786801F0D9F905E0786801F084
:1039EC00CCF9786801F0E4F97B6800221A77BB689F
:1039FC0003F00403002B20D0FB6803F00403002B1E
:103A0C001BD07B681B686FF004021A617B68022272
:103A1C001A777B681B689B6903F44073002B03D0F7
:103A2C00786801F0B3F905E0786801F0A6F97868D8
:103A3C0001F0BEF97B6800221A77BB6803F008031B
:103A4C00002B20D0FB6803F00803002B1BD07B68F5
:103A5C001B686FF008021A617B6804221A777B6876
:103A6C001B68DB6903F00303002B03D0786801F0BB
:103A7C008DF905E0786801F080F9786801F098F923
:103A8C007B6800221A77BB6803F01003002B20D050
:103A9C00FB6803F01003002B1BD07B681B686FF0D6
:103AAC0010021A617B6808221A777B681B68DB6935
:103ABC0003F44073002B03D0786801F067F905E03C
:103ACC00786801F05AF9786801F072F97B68002285
:103ADC001A77BB6803F00103002B0CD0FB6803F0D2
:103AEC000103002B07D07B681B686FF001021A6181
:103AFC00786801F030F9BB6803F08003002B0CD020
:103B0C00FB6803F08003002B07D07B681B686FF009
:103B1C0080021A61786803F0A3FFBB6803F04003CE
:103B2C00002B0CD0FB6803F04003002B07D07B6804
:103B3C001B686FF040021A61786801F04BF9BB68A2
:103B4C0003F02003002B0CD0FB6803F02003002BA8
:103B5C0007D07B681B686FF020021A61786803F04D
:103B6C006DFF00BF1037BD4680BD80B586B000AF7D
:103B7C00F860B9607A600023FB75FB6893F83C3001
:103B8C00012B01D1022347E0FB68012283F83C2082
:103B9C007B680C2B38D801A252F823F0DD3B0008CF
:103BAC00153C0008153C0008153C0008EB3B0008D0
:103BBC00153C0008153C0008153C0008F93B0008B2
:103BCC00153C0008153C0008153C0008073C000893
:103BDC00FB681B68B968184601F0C6FB17E0FB6868
:103BEC001B68B968184601F025FC10E0FB681B68DF
:103BFC00B968184601F088FC09E0FB681B68B968D5
:103C0C00184601F0EBFC02E00123FB7500BFFB68DA
:103C1C00002283F83C20FB7D18461837BD4680BD3A
:103C2C0080B586B000AFF860B9607A600023FB7590
:103C3C00FB6893F83C30012B01D1022388E0FB6830
:103C4C00012283F83C207B68002B1BD1FB68186891
:103C5C00BB681968BB685A68BB68DB6801F09DFDDE
:103C6C00FB681B689A69FB681B6822F00C029A615E
:103C7C00FB681B689969BB689A68FB681B680A43F8
:103C8C009A6160E07B68042B1CD1FB681868BB68E8
:103C9C001968BB685A68BB68DB6801F007FEFB68F3
:103CAC001B689A69FB681B6822F440629A61FB6886
:103CBC001B689969BB689B681A02FB681B680A43FE
:103CCC009A6140E07B68082B1BD1FB681868BB68C5
:103CDC001968BB685A68BB68DB6801F052FEFB6868
:103CEC001B68DA69FB681B6822F00C02DA61FB685E
:103CFC001B68D969BB689A68FB681B680A43DA6160
:103D0C0021E07B680C2B1CD1FB681868BB68196818
:103D1C00BB685A68BB68DB6801F06EFEFB681B6809
:103D2C00DA69FB681B6822F44062DA61FB681B6885
:103D3C00D969BB689B681A02FB681B680A43DA6185
:103D4C0001E00123FB75FB68002283F83C20FB7D1E
:103D5C0018461837BD4680BD80B586B000AFF860F8
:103D6C00B9607A600023FB75FB6893F83C30012B3B
:103D7C0001D10223AEE0FB68012283F83C207B6872
:103D8C000C2B00F29F8001A252F823F0CD3D0008CD
:103D9C00D13E0008D13E0008D13E00080D3E00087F
:103DAC00D13E0008D13E0008D13E00084F3E00082D
:103DBC00D13E0008D13E0008D13E00088F3E0008DD
:103DCC00FB681B68B968184601F0CEFAFB681B68E3
:103DDC009A69FB681B6842F008029A61FB681B68D1
:103DEC009A69FB681B6822F004029A61FB681B68E5
:103DFC009969BB681A69FB681B680A439A6164E09D
:103E0C00FB681B68B968184601F014FBFB681B685B
:103E1C009A69FB681B6842F400629A61FB681B6834
:103E2C009A69FB681B6822F480629A61FB681B68C4
:103E3C009969BB681B691A02FB681B680A439A6183
:103E4C0043E0FB681B68B968184601F05DFBFB6832
:103E5C001B68DA69FB681B6842F00802DA61FB68D0
:103E6C001B68DA69FB681B6822F00402DA61FB68E4
:103E7C001B68D969BB681A69FB681B680A43DA615D
:103E8C0023E0FB681B68B968184601F0A7FBFB68C8
:103E9C001B68DA69FB681B6842F40062DA61FB6834
:103EAC001B68DA69FB681B6822F48062DA61FB68C4
:103EBC001B68D969BB681B691A02FB681B680A433B
:103ECC00DA6102E00123FB7500BFFB68002283F876
:103EDC003C20FB7D18461837BD4680BD80B58CB0A4
:103EEC0000AFF860B9607A603B60002387F82F3030
:103EFC007A683B689A4200F0BE80FB6893F83C30CD
:103F0C00012B01D10223B7E0FB68012283F83C208E
:103F1C00FB68022283F83D20BB681B683B61BB68D1
:103F2C005B687B61BB689B68BB61BB68DB68FB61E2
:103F3C00BB681B697B62BB685B69BB627B68002BDF
:103F4C0003D07B68042B09D011E0FB681B6807F1D8
:103F5C0010021146184601F007FA0CE0FB681B68CA
:103F6C0007F110021146184601F064FA03E0012330
:103F7C0087F82F3000BF97F82F30002B70D13B689B
:103F8C00002B03D03B68042B33D065E0FB6818682A
:103F9C00BB689969BB68DA69BB681B6A01F0FDFBF9
:103FAC00FB681B689A69FB681B6822F00C029A611B
:103FBC00FB681B689A68FB681B6822F070029A60A9
:103FCC00FB681B689A68FB681B6842F050029A6099
:103FDC00FB681B689A68FB681B6822F007029A60F2
:103FEC00FB681B689A68FB681B6842F006029A60C3
:103FFC0036E0FB681868BB689969BB68DA69BB680E
:10400C001B6A01F053FCFB681B689A69FB681B6810
:10401C0022F440629A61FB681B689A68FB681B6813
:10402C0022F070029A60FB681B689A68FB681B6838
:10403C0042F060029A60FB681B689A68FB681B6818
:10404C0022F007029A60FB681B689A68FB681B6881
:10405C0042F006029A6003E0012387F82F3000BF7C
:10406C00FB68012283F83D20FB68002283F83C208A
:10407C0097F82F3000E0012318463037BD4680BD3D
:10408C0080B588B002AFF860B9607A603B603B6A7B
:10409C001B0A013301933B6A00933B687A68B96849
:1040AC00F86800F007F80346FB75FB7D18461837D7
:1040BC00BD4680BD80B586B000AFF860B9607A604F
:1040CC003B600023FB75FB6893F84630DBB2022B98
:1040DC0001D102232BE1FB6893F84630DBB2012BB4
:1040EC000BD13B68002B04D13B6A002B01D0012380
:1040FC001DE1FB68022283F846207B68B3F5804FF4
:10410C0000F0D8807B68B3F5804F00F2EE807B68BE
:10411C00B3F5005F00F0B3807B68B3F5005F00F28D
:10412C00E4807B68B3F5805F00F08E807B68B3F52C
:10413C00805F00F2DA807B68B3F5006F69D07B6832
:10414C00B3F5006F00F2D1807B68B3F5806F45D07A
:10415C007B68B3F5806F00F2C8807B68B3F5807F15
:10416C0004D07B68B3F5007F1CD0BEE0FB681B6AF3
:10417C00714A9A62FB681B6A704ADA62FB681B6AB6
:10418C006F4A1A63FB68186A3968FB681B684C3302
:10419C001A467B6A05F08BF80346002B00F0A880CA
:1041AC000123C4E0FB685B6A664A9A62FB685B6A3F
:1041BC00654ADA62FB685B6A614A1A63FB68586A93
:1041CC003968FB681B684C331A467B6A05F06FF83C
:1041DC000346002B00F08E800123A8E0FB689B6A4D
:1041EC00584A9A62FB689B6A574ADA62FB689B6A78
:1041FC00534A1A63FB68986A3968FB681B684C332E
:10420C001A467B6A05F053F80346002B74D0012341
:10421C008DE0FB68DB6A4B4A9A62FB68DB6A4A4AB0
:10422C00DA62FB68DB6A464A1A63FB68D86A39684B
:10423C00FB681B684C331A467B6A05F038F803465A
:10424C00002B5BD0012372E0FB681B6B3D4A9A622A
:10425C00FB681B6B3C4ADA62FB681B6B384A1A63BF
:10426C00FB68186B3968FB681B684C331A467B6A11
:10427C0005F01DF80346002B42D0012357E0FB68E4
:10428C005B6B324A9A62FB685B6B314ADA62FB68A1
:10429C005B6B2B4A1A63FB68586B3968FB681B68AD
:1042AC004C331A467B6A05F002F80346002B29D0E2
:1042BC0001233CE0FB689B6B264A9A62FB689B6B74
:1042CC00254ADA62FB689B6B1D4A1A63FB68986B84
:1042DC003968FB681B684C331A467B6A04F0E7FFAD
:1042EC000346002B10D0012321E00123FB750CE0C9
:1042FC0000BF0AE000BF08E000BF06E000BF04E01A
:10430C0000BF02E000BF00E000BFFB7D002B0DD121
:10431C00FB681B68B9683A6A0A439A64FB681B68B5
:10432C00D968FB681B687A680A43DA60FB7D18461B
:10433C001837BD4680BD00BF055200083352000837
:10434C00334F0008C54F00086D500008E97A00088B
:10435C000D7B00084F5200087D52000880B584B0D8
:10436C0000AF786039600023FB733B68B3F5804F76
:10437C0050D03B68B3F5804F52D83B68B3F5005F23
:10438C0042D03B68B3F5005F4AD83B68B3F5805F19
:10439C0034D03B68B3F5805F42D83B68B3F5006F0F
:1043AC0026D03B68B3F5006F3AD83B68B3F5806F05
:1043BC0018D03B68B3F5806F32D83B68B3F5807F7B
:1043CC0004D03B68B3F5007F06D029E07B681B6AFC
:1043DC00184605F007F826E07B685B6A184605F07E
:1043EC0001F820E07B689B6A184604F0FBFF1AE09A
:1043FC007B68DB6A184604F0F5FF14E07B681B6BE6
:10440C00184604F0EFFF0EE07B685B6B184604F077
:10441C00E9FF08E07B689B6B184604F0E3FF02E0C1
:10442C000123FB7300BFFB7B002B0CD17B681B684B
:10443C00D9683B68DA437B681B680A40DA607B68A2
:10444C00012283F84620FB7B18461037BD4680BD01
:10445C0080B588B002AFF860B9607A603B603B6AA7
:10446C001B0A013301933B6A00933B687A68B96875
:10447C00F86800F007F80346FB75FB7D1846183703
:10448C00BD4680BD80B586B000AFF860B9607A607B
:10449C003B600023FB75FB6893F84630DBB2022BC4
:1044AC0001D102232BE1FB6893F84630DBB2012BE0
:1044BC000BD13B68002B04D13B6A002B01D00123AC
:1044CC001DE1FB68022283F846207B68B3F5804F20
:1044DC0000F0D8807B68B3F5804F00F2EE807B68EB
:1044EC00B3F5005F00F0B3807B68B3F5005F00F2BA
:1044FC00E4807B68B3F5805F00F08E807B68B3F559
:10450C00805F00F2DA807B68B3F5006F69D07B685E
:10451C00B3F5006F00F2D1807B68B3F5806F45D0A6
:10452C007B68B3F5806F00F2C8807B68B3F5807F41
:10453C0004D07B68B3F5007F1CD0BEE0FB681B6A1F
:10454C00714A9A62FB681B6A704ADA62FB681B6AE2
:10455C006F4A1A63FB68186AFB681B684C33194670
:10456C003A687B6A04F0A3FE0346002B00F0A88097
:10457C000123C4E0FB685B6A664A9A62FB685B6A6B
:10458C00654ADA62FB685B6A614A1A63FB68586ABF
:10459C00FB681B684C3319463A687B6A04F087FE4B
:1045AC000346002B00F08E800123A8E0FB689B6A79
:1045BC00584A9A62FB689B6A574ADA62FB689B6AA4
:1045CC00534A1A63FB68986AFB681B684C3319469C
:1045DC003A687B6A04F06BFE0346002B74D001230F
:1045EC008DE0FB68DB6A4B4A9A62FB68DB6A4A4ADD
:1045FC00DA62FB68DB6A464A1A63FB68D86AFB68B6
:10460C001B684C3319463A687B6A04F050FE03462B
:10461C00002B5BD0012372E0FB681B6B3D4A9A6256
:10462C00FB681B6B3C4ADA62FB681B6B384A1A63EB
:10463C00FB68186BFB681B684C3319463A687B6A3D
:10464C0004F035FE0346002B42D0012357E0FB68F3
:10465C005B6B324A9A62FB685B6B314ADA62FB68CD
:10466C005B6B2B4A1A63FB68586BFB681B684C33FB
:10467C0019463A687B6A04F01AFE0346002B29D0CF
:10468C0001233CE0FB689B6B264A9A62FB689B6BA0
:10469C00254ADA62FB689B6B1D4A1A63FB68986BB0
:1046AC00FB681B684C3319463A687B6A04F0FFFDC3
:1046BC000346002B10D0012321E00123FB750CE0F5
:1046CC0000BF0AE000BF08E000BF06E000BF04E046
:1046DC0000BF02E000BF00E000BFFB7D002B0DD14E
:1046EC00FB681B68B9683A6A0A439A64FB681B68E2
:1046FC00D968FB681B687A680A43DA60FB7D184648
:10470C001837BD4680BD00BF055200083352000863
:10471C00334F0008D55000089D510008E97A000875
:10472C000D7B00084F5200087D52000880B584B004
:10473C0000AF786039600023FB733B68B3F5804FA2
:10474C0050D03B68B3F5804F52D83B68B3F5005F4F
:10475C0042D03B68B3F5005F4AD83B68B3F5805F45
:10476C0034D03B68B3F5805F42D83B68B3F5006F3B
:10477C0026D03B68B3F5006F3AD83B68B3F5806F31
:10478C0018D03B68B3F5806F32D83B68B3F5807FA7
:10479C0004D03B68B3F5007F06D029E07B681B6A28
:1047AC00184604F01FFE26E07B685B6A184604F08E
:1047BC0019FE20E07B689B6A184604F013FE1AE091
:1047CC007B68DB6A184604F00DFE14E07B681B6BFB
:1047DC00184604F007FE0EE07B685B6B184604F08D
:1047EC0001FE08E07B689B6B184604F0FBFD02E0C1
:1047FC000123FB7300BFFB7B002B0CD17B681B6878
:10480C00D9683B68DA437B681B680A40DA607B68CE
:10481C00012283F84620FB7B18461037BD4680BD2D
:10482C0080B483B000AF786039607B6893F83C301B
:10483C00012B01D1022314E07B68012283F83C2078
:10484C007B68022283F83D207B681B683A685A61BA
:10485C007B68012283F83D207B68002283F83C2092
:10486C00002318460C37BD4680BC704780B586B017
:10487C0000AFF860B9607A600023FB75FB6893F8B1
:10488C003C30012B01D10223B8E0FB68012283F8F4
:10489C003C20FB68022283F83D20BB685B68002B40
:1048AC0002D0012B09D021E0FB681B689A68FB68D9
:1048BC001B6822F47F429A601BE0BB68DB68002B0C
:1048CC0009D0FB68012283F83D20FB68002283F8A5
:1048DC003C20012392E0FB681868BB68D968BB6870
:1048EC009A68BB681B6901F0DDF802E00123FB75D7
:1048FC0000BFFB7D002B78D17B680C2B74D801A2F8
:10490C0052F823F045490008F5490008F54900081C
:10491C00F549000871490008F5490008F5490008F7
:10492C00F54900089D490008F5490008F5490008BB
:10493C00F5490008C9490008BB681B68002B08D062
:10494C00FB681B689A69FB681B6842F080029A61DD
:10495C004BE0FB681B689A69FB681B6822F08002BD
:10496C009A6142E0BB681B68002B08D0FB681B688F
:10497C009A69FB681B6842F400429A6135E0FB6857
:10498C001B689A69FB681B6822F400429A612CE050
:10499C00BB681B68002B08D0FB681B68DA69FB68D6
:1049AC001B6842F08002DA611FE0FB681B68DA6961
:1049BC00FB681B6822F08002DA6116E0BB681B689A
:1049CC00002B08D0FB681B68DA69FB681B6842F493
:1049DC000042DA6109E0FB681B68DA69FB681B6856
:1049EC0022F40042DA6100E000BFFB68012283F888
:1049FC003D20FB68002283F83C20FB7D18461837CD
:104A0C00BD4680BD80B584B000AF786039600023AE
:104A1C00FB737B6893F83C30012B01D10223B4E08B
:104A2C007B68012283F83C207B68022283F83D20BE
:104A3C007B681B689B68BB60BB6823F07703BB601B
:104A4C00BB6823F47F43BB607B681B68BA689A60C1
:104A5C003B681B68B3F5005F3ED0B3F5005F00F216
:104A6C008780B3F5805F00F08680B3F5805F7FD8D8
:104A7C00702B1AD0702B7BD8602B50D0602B77D832
:104A8C00502B3CD0502B73D8402B58D0402B6FD888
:104A9C00302B64D0302B6BD8202B60D0202B67D8D8
:104AAC00002B5CD0102B5AD062E07B6818683B68F6
:104ABC0099683B685A683B68DB6800F0F3FF7B68D9
:104ACC001B689B68BB60BB6843F07703BB607B686B
:104ADC001B68BA689A604FE07B6818683B689968F5
:104AEC003B685A683B68DB6800F0DCFF7B681B683E
:104AFC009A687B681B6842F480429A603CE07B6851
:104B0C0018683B6859683B68DB681A4600F0A0FEE1
:104B1C007B681B685021184600F0AAFF2CE07B68CC
:104B2C0018683B6859683B68DB681A4600F0FAFE67
:104B3C007B681B686021184600F09AFF1CE07B68BC
:104B4C0018683B6859683B68DB681A4600F080FEC1
:104B5C007B681B684021184600F08AFF0CE07B68DC
:104B6C001A683B681B681946104600F081FF03E089
:104B7C000123FB7300E000BF7B68012283F83D201A
:104B8C007B68002283F83C20FB7B18461037BD461F
:104B9C0080BD80B485B000AF786039607B681B68DD
:104BAC005B68FB60FB6823F08003FB60FA683B6882
:104BBC001343FB607B681B68FA685A600023184635
:104BCC001437BD4680BC704780B582B000AF7860AA
:104BDC0039607B6893F83C30012B01D1022331E022
:104BEC007B68012283F83C207B68022283F83D20FD
:104BFC003968786800F040FD0346002B09D07B68CB
:104C0C00012283F83D207B68002283F83C2001239D
:104C1C0018E07B681B68DA687B681B6822F040022E
:104C2C00DA607B681B68DA687B681B6822F4804258
:104C3C00DA607B68012283F83D207B68002283F8D0
:104C4C003C20002318460837BD4680BD80B582B095
:104C5C0000AF786039607B6893F83C30012B01D150
:104C6C00022331E07B68012283F83C207B6802221E
:104C7C0083F83D203968786800F0FEFC0346002B71
:104C8C0009D07B68012283F83D207B68002283F8E1
:104C9C003C20012318E07B681B68DA687B681B6882
:104CAC0042F04002DA607B681B68DA687B681B683C
:104CBC0022F48042DA607B68012283F83D207B6815
:104CCC00002283F83C20002318460837BD4680BDDF
:104CDC0080B485B000AF786039600023FB603B681E
:104CEC000C2B31D801A252F823F000BF2D4D000837
:104CFC00554D0008554D0008554D0008374D00081E
:104D0C00554D0008554D0008554D0008414D000803
:104D1C00554D0008554D0008554D00084B4D0008E9
:104D2C007B681B685B6BFB600FE07B681B689B6B95
:104D3C00FB600AE07B681B68DB6BFB6005E07B6853
:104D4C001B681B6CFB6000E000BFFB681846143747
:104D5C00BD4680BC704780B483B000AF786000BFA4
:104D6C000C37BD4680BC704780B483B000AF786010
:104D7C0000BF0C37BD4680BC704780B483B000AF19
:104D8C00786000BF0C37BD4680BC704780B483B0E0
:104D9C0000AF786000BF0C37BD4680BC704780B454
:104DAC0083B000AF786000BF0C37BD4680BC704745
:104DBC0080B483B000AF786000BF0C37BD4680BCB8
:104DCC00704780B483B000AF786000BF0C37BD462D
:104DDC0080BC704780B483B000AF786000BF0C37E4
:104DEC00BD4680BC704780B483B000AF786000BF14
:104DFC000C37BD4680BC704780B483B000AF786080
:104E0C0000BF0C37BD4680BC704780B483B000AF88
:104E1C0078607B6893F83D30DBB218460C37BD46A2
:104E2C0080BC704780B483B000AF78607B6893F827
:104E3C003D30DBB218460C37BD4680BC704780B4A1
:104E4C0083B000AF78607B6893F83D30DBB21846D6
:104E5C000C37BD4680BC704780B483B000AF78601F
:104E6C007B6893F83D30DBB218460C37BD4680BCEE
:104E7C00704780B483B000AF78607B6893F83D30A6
:104E8C00DBB218460C37BD4680BC704780B483B08B
:104E9C0000AF78607B6893F83D30DBB218460C3776
:104EAC00BD4680BC704780B483B000AF78607B682F
:104EBC001B7F18460C37BD4680BC704780B485B04C
:104ECC0000AF786039603B68002B04D17B6893F8A5
:104EDC003E30DBB213E03B68042B04D17B6893F8C3
:104EEC003F30DBB20BE03B68082B04D17B6893F8B6
:104EFC004030DBB203E07B6893F84130DBB2FB73EC
:104F0C00FB7B18461437BD4680BC704780B483B019
:104F1C0000AF78607B6893F84630DBB218460C37EC
:104F2C00BD4680BC704780B584B000AF78607B68AC
:104F3C005B6AFB60FB685B6A7A689A4207D1FB6824
:104F4C0001221A77FB68012283F83E202AE0FB68D5
:104F5C009B6A7A689A4207D1FB6802221A77FB682F
:104F6C00012283F83F201DE0FB68DB6A7A689A42D5
:104F7C0007D1FB6804221A77FB68012283F84020D2
:104F8C0010E0FB681B6B7A689A4207D1FB68082219
:104F9C001A77FB68012283F8412003E0FB680122A9
:104FAC0083F83D20F868FFF727FFFB6800221A778B
:104FBC0000BF1037BD4680BD80B584B000AF7860AF
:104FCC007B685B6AFB60FB685B6A7A689A420BD110
:104FDC00FB6801221A777B689B69002B36D1FB6832
:104FEC00012283F83E2031E0FB689B6A7A689A4282
:104FFC000BD1FB6802221A777B689B69002B25D1A9
:10500C00FB68012283F83F2020E0FB68DB6A7A68AA
:10501C009A420BD1FB6804221A777B689B69002BA0
:10502C0014D1FB68012283F840200FE0FB681B6B56
:10503C007A689A420AD1FB6808221A777B689B69C6
:10504C00002B03D1FB68012283F84120F868FFF79D
:10505C00AFFEFB6800221A7700BF1037BD4680BD3B
:10506C0080B584B000AF78607B685B6AFB60FB68DE
:10507C005B6A7A689A4203D1FB6801221A7719E0BD
:10508C00FB689B6A7A689A4203D1FB6802221A7702
:10509C0010E0FB68DB6A7A689A4203D1FB68042251
:1050AC001A7707E0FB681B6B7A689A4202D1FB689F
:1050BC0008221A77F868FFF784FEFB6800221A773B
:1050CC0000BF1037BD4680BD80B584B000AF78609E
:1050DC007B685B6AFB60FB685B6A7A689A420FD1FB
:1050EC00FB6801221A777B689B69002B46D1FB6811
:1050FC00012283F83E20FB68012283F842203DE028
:10510C00FB689B6A7A689A420FD1FB6802221A7775
:10511C007B689B69002B31D1FB68012283F83F200F
:10512C00FB68012283F8432028E0FB68DB6A7A687D
:10513C009A420FD1FB6804221A777B689B69002B7B
:10514C001CD1FB68012283F84020FB68012283F804
:10515C00442013E0FB681B6B7A689A420ED1FB6803
:10516C0008221A777B689B69002B07D1FB68012208
:10517C0083F84120FB68012283F84520F868FFF78B
:10518C0005FEFB6800221A7700BF1037BD4680BDB4
:10519C0080B584B000AF78607B685B6AFB60FB68AD
:1051AC005B6A7A689A4203D1FB6801221A7719E08C
:1051BC00FB689B6A7A689A4203D1FB6802221A77D1
:1051CC0010E0FB68DB6A7A689A4203D1FB68042220
:1051DC001A7707E0FB681B6B7A689A4202D1FB686E
:1051EC0008221A77F868FFF7DAFDFB6800221A77B5
:1051FC0000BF1037BD4680BD80B584B000AF78606D
:10520C007B685B6AFB60FB681B6A9B69002B03D1A4
:10521C00FB68012283F83D20F868FFF79CFD00BF76
:10522C001037BD4680BD80B584B000AF78607B6818
:10523C005B6AFB60F868FFF797FD00BF1037BD464F
:10524C0080BD80B584B000AF78607B685B6AFB6022
:10525C00FB689B6B9B69002B03D1FB68012283F8D5
:10526C003D20F868FFF7B6FD00BF1037BD4680BD86
:10527C0080B584B000AF78607B685B6AFB60F868CF
:10528C00FFF7B1FD00BF1037BD4680BD80B485B0BF
:10529C0000AF786039607B681B68FB607B682F4AC5
:1052AC0093420BD07B68B3F1804F07D07B682C4ABC
:1052BC00934203D07B682B4A934208D1FB6823F0BE
:1052CC007003FB603B685B68FA681343FB607B68A8
:1052DC00224A93420BD07B68B3F1804F07D07B6896
:1052EC001F4A934203D07B681E4A934208D1FB6845
:1052FC0023F44073FB603B68DB68FA681343FB6084
:10530C00FB6823F080023B685B691343FB607B689E
:10531C00FA681A603B689A687B68DA623B681A68BC
:10532C007B689A627B680D4A934203D13B681A6989
:10533C007B681A637B6801225A617B681B6903F0E6
:10534C000103002B05D07B681B6923F001027B68ED
:10535C001A6100BF1437BD4680BC7047002C014059
:10536C00000400400008004080B487B000AF7860B3
:10537C0039607B681B6A7B617B681B6A23F00102C6
:10538C007B681A627B685B683B617B689B69FB602E
:10539C00FB6823F07003FB60FB6823F00303FB60E6
:1053AC003B681B68FA681343FB607B6923F00203BC
:1053BC007B613B689B687A6913437B617B681C4A01
:1053CC0093420CD17B6923F008037B613B68DB685B
:1053DC007A6913437B617B6923F004037B617B68EF
:1053EC00134A934211D13B6923F480733B613B69AF
:1053FC0023F400733B613B685B693A6913433B617F
:10540C003B689B693A6913433B617B683A695A6014
:10541C007B68FA689A613B685A687B685A637B6858
:10542C007A691A6200BF1C37BD4680BC704700BF4A
:10543C00002C014080B487B000AF786039607B6885
:10544C001B6A7B617B681B6A23F010027B681A6203
:10545C007B685B683B617B689B69FB60FB6823F442
:10546C00E043FB60FB6823F44073FB603B681B6804
:10547C001B02FA681343FB607B6923F020037B61FA
:10548C003B689B681B017A6913437B617B681D4AEF
:10549C0093420DD17B6923F080037B613B68DB6811
:1054AC001B017A6913437B617B6923F040037B61A9
:1054BC007B68144A934213D13B6923F480633B61AC
:1054CC003B6923F400633B613B685B699B003A6971
:1054DC0013433B613B689B699B003A6913433B61F7
:1054EC007B683A695A607B68FA689A613B685A68CB
:1054FC007B689A637B687A691A6200BF1C37BD4669
:10550C0080BC7047002C014080B487B000AF78603D
:10551C0039607B681B6A7B617B681B6A23F4807231
:10552C007B681A627B685B683B617B68DB69FB604C
:10553C00FB6823F07003FB60FB6823F00303FB6044
:10554C003B681B68FA681343FB607B6923F40073A8
:10555C007B613B689B681B027A6913437B617B68A8
:10556C001D4A93420DD17B6923F400637B613B6838
:10557C00DB681B027A6913437B617B6923F48063CC
:10558C007B617B68144A934213D13B6923F48053AB
:10559C003B613B6923F400533B613B685B691B0136
:1055AC003A6913433B613B689B691B013A6913439E
:1055BC003B617B683A695A607B68FA68DA613B68E0
:1055CC005A687B68DA637B687A691A6200BF1C3799
:1055DC00BD4680BC704700BF002C014080B487B032
:1055EC0000AF786039607B681B6A3B617B681B6A23
:1055FC0023F480527B681A627B685B687B617B68F2
:10560C00DB69FB60FB6823F4E043FB60FB6823F47D
:10561C004073FB603B681B681B02FA681343FB601A
:10562C003B6923F400533B613B689B681B033A695D
:10563C0013433B617B680F4A934209D17B6923F486
:10564C0080437B613B685B699B017A6913437B6197
:10565C007B687A695A607B68FA68DA613B685A68D9
:10566C007B681A647B683A691A6200BF1C37BD46B6
:10567C0080BC7047002C014080B586B000AF7860CC
:10568C0039600023FB757B681B689B683B613B6939
:10569C0023F070033B613B685B683A6913433B61E1
:1056AC003B6923F007033B613B681B683A69134372
:1056BC003B617B681B683A699A603B685B68702B3E
:1056CC001AD0702B60D8602B54D0602B5CD8502B28
:1056DC0046D0502B58D8402B19D0402B54D8302BB7
:1056EC0055D0302B50D8202B51D0202B4CD8002B00
:1056FC004DD0102B4BD047E07B6818683B68D968BD
:10570C003B689A683B681B6900F0CCF940E03B6849
:10571C001B68052B01D101233BE07B681B681B6ACE
:10572C00FB607B681B681A6A7B681B6822F00102AD
:10573C001A627B681B689B69BB60BB6823F0F00333
:10574C00BB603B681B691B01BA681343BB607B6879
:10575C001B68BA689A617B681B68FA681A6217E062
:10576C007B6818683B6899683B681B691A4600F0AF
:10577C006FF80DE07B6818683B6899683B681B699B
:10578C001A4600F0CFF803E00123FB7500E000BFE0
:10579C00FB7D18461837BD4680BD80B487B000AF7E
:1057AC00F860B9607A603B60FB681B6A3B61FB6820
:1057BC001B6A23F00102FB681A62FB689B697B6120
:1057CC00FB68204A93420BD0FB68B3F1804F07D0A3
:1057DC00FB681D4A934203D0FB681C4A934201D1DB
:1057EC00012300E00023002B08D07B6923F0030386
:1057FC007B617A697B6813437B6103E07B6943F0CF
:10580C0001037B617B6923F0F0037B613B681B0127
:10581C00DBB27A6913437B613B6923F00A033B617A
:10582C00BB6803F00A033A6913433B61FB687A696E
:10583C009A61FB683A691A6200BF1C37BD4680BC8E
:10584C00704700BF002C01400004004000080040DD
:10585C0080B487B000AFF860B9607A60FB681B6AEF
:10586C007B61FB681B6A23F00102FB681A62FB6810
:10587C009B693B613B6923F0F0033B617B681B0137
:10588C003A6913433B617B6923F00A037B617A69B4
:10589C00BB6813437B61FB683A699A61FB687A6960
:1058AC001A6200BF1C37BD4680BC704780B487B0FD
:1058BC0000AFF860B9607A603B60FB681B6A7B6183
:1058CC00FB681B6A23F01002FB681A62FB689B6979
:1058DC003B613B6923F440733B617B681B023A6973
:1058EC0013433B613B6923F470433B613B681B03EF
:1058FC009BB23A6913433B617B6923F0A0037B6144
:10590C00BB681B0103F0A0037A6913437B61FB683E
:10591C003A699A61FB687A691A6200BF1C37BD4606
:10592C0080BC704780B487B000AFF860B9607A6013
:10593C00FB681B6A7B61FB681B6A23F01002FB6827
:10594C001A62FB689B693B613B6923F470433B61C2
:10595C007B681B033A6913433B617B6923F0A0030B
:10596C007B61BB681B017A6913437B61FB683A69F5
:10597C009A61FB687A691A6200BF1C37BD4680BC0D
:10598C00704780B487B000AFF860B9607A603B6054
:10599C00FB681B6A7B61FB681B6A23F48072FB68E3
:1059AC001A62FB68DB693B613B6923F003033B61D3
:1059BC003A697B6813433B613B6923F0F0033B611D
:1059CC003B681B01DBB23A6913433B617B6923F4EF
:1059DC0000737B61BB681B0203F400737A69134389
:1059EC007B61FB683A69DA61FB687A691A6200BF0D
:1059FC001C37BD4680BC704780B487B000AFF860E0
:105A0C00B9607A603B60FB681B6A7B61FB681B6A50
:105A1C0023F48052FB681A62FB68DB693B613B69CB
:105A2C0023F440733B617B681B023A6913433B616F
:105A3C003B6923F470433B613B681B039BB23A699F
:105A4C0013433B617B6923F400537B61BB681B03ED
:105A5C0003F400537A6913437B61FB683A69DA619A
:105A6C00FB687A691A6200BF1C37BD4680BC704760
:105A7C0080B485B000AF786039607B689B68FB6050
:105A8C00FB6823F07003FB603A68FB68134343F038
:105A9C000703FB607B68FA689A6000BF1437BD4649
:105AAC0080BC704780B487B000AFF860B9607A6092
:105ABC003B60FB689B687B617B6923F47F437B6164
:105ACC003B681A027B681A43BB6813437A69134319
